{
  "_format": "hh-sol-artifact-1",
  "contractName": "swapTest",
  "sourceName": "contracts/swapTest.sol",
  "abi": [
    {
      "inputs": [],
      "stateMutability": "nonpayable",
      "type": "constructor"
    },
    {
      "anonymous": false,
      "inputs": [
        {
          "indexed": false,
          "internalType": "uint256",
          "name": "amountOut",
          "type": "uint256"
        }
      ],
      "name": "SwapExecuted",
      "type": "event"
    },
    {
      "inputs": [
        {
          "internalType": "address",
          "name": "routerAddr",
          "type": "address"
        },
        {
          "internalType": "address",
          "name": "fromToken",
          "type": "address"
        },
        {
          "internalType": "address",
          "name": "toToken",
          "type": "address"
        },
        {
          "internalType": "uint256",
          "name": "amount",
          "type": "uint256"
        }
      ],
      "name": "swap",
      "outputs": [],
      "stateMutability": "nonpayable",
      "type": "function"
    },
    {
      "inputs": [
        {
          "internalType": "address",
          "name": "_routerAddr",
          "type": "address"
        },
        {
          "internalType": "address",
          "name": "_fromToken",
          "type": "address"
        },
        {
          "internalType": "address",
          "name": "_toToken",
          "type": "address"
        },
        {
          "internalType": "uint256",
          "name": "_amount",
          "type": "uint256"
        }
      ],
      "name": "swap2",
      "outputs": [],
      "stateMutability": "nonpayable",
      "type": "function"
    }
  ],
  "bytecode": "0x608060405234801561001057600080fd5b50336000806101000a81548173ffffffffffffffffffffffffffffffffffffffff021916908373ffffffffffffffffffffffffffffffffffffffff1602179055506112b9806100606000396000f3fe608060405234801561001057600080fd5b50600436106100365760003560e01c8063a9678a181461003b578063dc368bec14610057575b600080fd5b61005560048036038101906100509190610997565b610073565b005b610071600480360381019061006c9190610997565b6103a3565b005b60008390508073ffffffffffffffffffffffffffffffffffffffff166323b872dd3330856040518463ffffffff1660e01b81526004016100b593929190610a1c565b6020604051808303816000875af11580156100d4573d6000803e3d6000fd5b505050506040513d601f19601f820116820180604052508101906100f89190610a8b565b508073ffffffffffffffffffffffffffffffffffffffff1663095ea7b386846040518363ffffffff1660e01b8152600401610134929190610ab8565b6020604051808303816000875af1158015610153573d6000803e3d6000fd5b505050506040513d601f19601f820116820180604052508101906101779190610a8b565b6101b6576040517f08c379a00000000000000000000000000000000000000000000000000000000081526004016101ad90610b3e565b60405180910390fd5b6000600267ffffffffffffffff8111156101d3576101d2610b5e565b5b6040519080825280602002602001820160405280156102015781602001602082028036833780820191505090505b509050848160008151811061021957610218610b8d565b5b602002602001019073ffffffffffffffffffffffffffffffffffffffff16908173ffffffffffffffffffffffffffffffffffffffff1681525050838160018151811061026857610267610b8d565b5b602002602001019073ffffffffffffffffffffffffffffffffffffffff16908173ffffffffffffffffffffffffffffffffffffffff1681525050600086905060008173ffffffffffffffffffffffffffffffffffffffff166338ed17398660008630426040518663ffffffff1660e01b81526004016102eb959493929190610cbf565b6000604051808303816000875af115801561030a573d6000803e3d6000fd5b505050506040513d6000823e3d601f19601f820116820180604052508101906103339190610e58565b9050600081600183516103469190610ed0565b8151811061035757610356610b8d565b5b602002602001015190507f8d92c805c252261fcfff21ee60740eb8a38922469a7e6ee396976d57c22fc1c9816040516103909190610f04565b60405180910390a1505050505050505050565b600083905060008173ffffffffffffffffffffffffffffffffffffffff166370a08231306040518263ffffffff1660e01b81526004016103e39190610f1f565b602060405180830381865afa158015610400573d6000803e3d6000fd5b505050506040513d601f19601f820116820180604052508101906104249190610f3a565b905082811015610469576040517f08c379a000000000000000000000000000000000000000000000000000000000815260040161046090610fd9565b60405180910390fd5b600086905060008690508073ffffffffffffffffffffffffffffffffffffffff1663095ea7b389876040518363ffffffff1660e01b81526004016104ae929190610ab8565b6020604051808303816000875af11580156104cd573d6000803e3d6000fd5b505050506040513d601f19601f820116820180604052508101906104f19190610a8b565b610530576040517f08c379a000000000000000000000000000000000000000000000000000000000815260040161052790611045565b60405180910390fd5b6000600267ffffffffffffffff81111561054d5761054c610b5e565b5b60405190808252806020026020018201604052801561057b5781602001602082028036833780820191505090505b509050878160008151811061059357610592610b8d565b5b602002602001019073ffffffffffffffffffffffffffffffffffffffff16908173ffffffffffffffffffffffffffffffffffffffff168152505086816001815181106105e2576105e1610b8d565b5b602002602001019073ffffffffffffffffffffffffffffffffffffffff16908173ffffffffffffffffffffffffffffffffffffffff16815250506002815114610660576040517f08c379a0000000000000000000000000000000000000000000000000000000008152600401610657906110b1565b60405180910390fd5b8773ffffffffffffffffffffffffffffffffffffffff168160008151811061068b5761068a610b8d565b5b602002602001015173ffffffffffffffffffffffffffffffffffffffff161480156106fc57508673ffffffffffffffffffffffffffffffffffffffff16816001815181106106dc576106db610b8d565b5b602002602001015173ffffffffffffffffffffffffffffffffffffffff16145b61073b576040517f08c379a00000000000000000000000000000000000000000000000000000000081526004016107329061111d565b60405180910390fd5b60005b81518110156107e357600073ffffffffffffffffffffffffffffffffffffffff1682828151811061077257610771610b8d565b5b602002602001015173ffffffffffffffffffffffffffffffffffffffff16036107d0576040517f08c379a00000000000000000000000000000000000000000000000000000000081526004016107c790611189565b60405180910390fd5b80806107db906111a9565b91505061073e565b5060008373ffffffffffffffffffffffffffffffffffffffff166338ed17398860008530426040518663ffffffff1660e01b8152600401610828959493929190610cbf565b6000604051808303816000875af1158015610847573d6000803e3d6000fd5b505050506040513d6000823e3d601f19601f820116820180604052508101906108709190610e58565b905060008082600184516108849190610ed0565b8151811061089557610894610b8d565b5b602002602001015190508181116108e1576040517f08c379a00000000000000000000000000000000000000000000000000000000081526004016108d890611263565b60405180910390fd5b505050505050505050505050565b6000604051905090565b600080fd5b600080fd5b600073ffffffffffffffffffffffffffffffffffffffff82169050919050565b600061092e82610903565b9050919050565b61093e81610923565b811461094957600080fd5b50565b60008135905061095b81610935565b92915050565b6000819050919050565b61097481610961565b811461097f57600080fd5b50565b6000813590506109918161096b565b92915050565b600080600080608085870312156109b1576109b06108f9565b5b60006109bf8782880161094c565b94505060206109d08782880161094c565b93505060406109e18782880161094c565b92505060606109f287828801610982565b91505092959194509250565b610a0781610923565b82525050565b610a1681610961565b82525050565b6000606082019050610a3160008301866109fe565b610a3e60208301856109fe565b610a4b6040830184610a0d565b949350505050565b60008115159050919050565b610a6881610a53565b8114610a7357600080fd5b50565b600081519050610a8581610a5f565b92915050565b600060208284031215610aa157610aa06108f9565b5b6000610aaf84828501610a76565b91505092915050565b6000604082019050610acd60008301856109fe565b610ada6020830184610a0d565b9392505050565b600082825260208201905092915050565b7f546f6b656e207472616e73666572206e6f7420617070726f7665642e00000000600082015250565b6000610b28601c83610ae1565b9150610b3382610af2565b602082019050919050565b60006020820190508181036000830152610b5781610b1b565b9050919050565b7f4e487b7100000000000000000000000000000000000000000000000000000000600052604160045260246000fd5b7f4e487b7100000000000000000000000000000000000000000000000000000000600052603260045260246000fd5b6000819050919050565b6000819050919050565b6000610beb610be6610be184610bbc565b610bc6565b610961565b9050919050565b610bfb81610bd0565b82525050565b600081519050919050565b600082825260208201905092915050565b6000819050602082019050919050565b610c3681610923565b82525050565b6000610c488383610c2d565b60208301905092915050565b6000602082019050919050565b6000610c6c82610c01565b610c768185610c0c565b9350610c8183610c1d565b8060005b83811015610cb2578151610c998882610c3c565b9750610ca483610c54565b925050600181019050610c85565b5085935050505092915050565b600060a082019050610cd46000830188610a0d565b610ce16020830187610bf2565b8181036040830152610cf38186610c61565b9050610d0260608301856109fe565b610d0f6080830184610a0d565b9695505050505050565b600080fd5b6000601f19601f8301169050919050565b610d3882610d1e565b810181811067ffffffffffffffff82111715610d5757610d56610b5e565b5b80604052505050565b6000610d6a6108ef565b9050610d768282610d2f565b919050565b600067ffffffffffffffff821115610d9657610d95610b5e565b5b602082029050602081019050919050565b600080fd5b600081519050610dbb8161096b565b92915050565b6000610dd4610dcf84610d7b565b610d60565b90508083825260208201905060208402830185811115610df757610df6610da7565b5b835b81811015610e205780610e0c8882610dac565b845260208401935050602081019050610df9565b5050509392505050565b600082601f830112610e3f57610e3e610d19565b5b8151610e4f848260208601610dc1565b91505092915050565b600060208284031215610e6e57610e6d6108f9565b5b600082015167ffffffffffffffff811115610e8c57610e8b6108fe565b5b610e9884828501610e2a565b91505092915050565b7f4e487b7100000000000000000000000000000000000000000000000000000000600052601160045260246000fd5b6000610edb82610961565b9150610ee683610961565b9250828203905081811115610efe57610efd610ea1565b5b92915050565b6000602082019050610f196000830184610a0d565b92915050565b6000602082019050610f3460008301846109fe565b92915050565b600060208284031215610f5057610f4f6108f9565b5b6000610f5e84828501610dac565b91505092915050565b7f496e73756666696369656e7420746f6b656e2062616c616e636520666f72207360008201527f7761700000000000000000000000000000000000000000000000000000000000602082015250565b6000610fc3602383610ae1565b9150610fce82610f67565b604082019050919050565b60006020820190508181036000830152610ff281610fb6565b9050919050565b7f763220746f6b656e207472616e73666572206e6f7420617070726f7665642e00600082015250565b600061102f601f83610ae1565b915061103a82610ff9565b602082019050919050565b6000602082019050818103600083015261105e81611022565b9050919050565b7f496e76616c696420737761702070617468206c656e6774680000000000000000600082015250565b600061109b601883610ae1565b91506110a682611065565b602082019050919050565b600060208201905081810360008301526110ca8161108e565b9050919050565b7f496e76616c696420737761702070617468000000000000000000000000000000600082015250565b6000611107601183610ae1565b9150611112826110d1565b602082019050919050565b60006020820190508181036000830152611136816110fa565b9050919050565b7f5a65726f206164647265737320696e2073776170207061746800000000000000600082015250565b6000611173601983610ae1565b915061117e8261113d565b602082019050919050565b600060208201905081810360008301526111a281611166565b9050919050565b60006111b482610961565b91507fffffffffffffffffffffffffffffffffffffffffffffffffffffffffffffffff82036111e6576111e5610ea1565b5b600182019050919050565b7f526563656976656420616d6f756e74206c657373207468616e2065787065637460008201527f6564000000000000000000000000000000000000000000000000000000000000602082015250565b600061124d602283610ae1565b9150611258826111f1565b604082019050919050565b6000602082019050818103600083015261127c81611240565b905091905056fea264697066735822122068653535dd1f4079d207cb39847b6b08313c738a8010f7b679b3ff8ce2b9c98364736f6c63430008130033",
  "linkReferences": {},
  "deployedLinkReferences": {}
}