{
  "_format": "hh-sol-artifact-1",
  "contractName": "Flashloan",
  "sourceName": "contracts/Flashloan.sol",
  "abi": [
    {
      "inputs": [
        {
          "internalType": "address",
          "name": "_flTokenAddr",
          "type": "address"
        },
        {
          "internalType": "uint256",
          "name": "_flAmount",
          "type": "uint256"
        },
        {
          "internalType": "address[]",
          "name": "_swapAddr",
          "type": "address[]"
        },
        {
          "internalType": "address[]",
          "name": "_routerAddr",
          "type": "address[]"
        },
        {
          "internalType": "uint24",
          "name": "_fee",
          "type": "uint24"
        }
      ],
      "name": "executeFlashLoan",
      "outputs": [],
      "stateMutability": "nonpayable",
      "type": "function"
    },
    {
      "inputs": [
        {
          "internalType": "contract IERC20[]",
          "name": "tokens",
          "type": "address[]"
        },
        {
          "internalType": "uint256[]",
          "name": "amounts",
          "type": "uint256[]"
        },
        {
          "internalType": "uint256[]",
          "name": "feeAmounts",
          "type": "uint256[]"
        },
        {
          "internalType": "bytes",
          "name": "userData",
          "type": "bytes"
        }
      ],
      "name": "receiveFlashLoan",
      "outputs": [],
      "stateMutability": "nonpayable",
      "type": "function"
    }
  ],
  "bytecode": "0x608060405234801561001057600080fd5b50612447806100206000396000f3fe608060405234801561001057600080fd5b50600436106100365760003560e01c806349c3d68b1461003b578063f04f270714610057575b600080fd5b610055600480360381019061005091906112b1565b610073565b005b610071600480360381019061006c9190611672565b610256565b005b60008790506000600167ffffffffffffffff8111156100955761009461137e565b5b6040519080825280602002602001820160405280156100c35781602001602082028036833780820191505090505b5090506000600167ffffffffffffffff8111156100e3576100e261137e565b5b6040519080825280602002602001820160405280156101115781602001602082028036833780820191505090505b509050828260008151811061012957610128611749565b5b602002602001019073ffffffffffffffffffffffffffffffffffffffff16908173ffffffffffffffffffffffffffffffffffffffff1681525050888160008151811061017857610177611749565b5b6020026020010181815250508787600091906101959291906110a2565b508585600191906101a79291906110a2565b5083600460006101000a81548162ffffff021916908362ffffff16021790555073ba12222222228d8ba445958a75a0704d566bf2c873ffffffffffffffffffffffffffffffffffffffff16635c38449e3084846040518463ffffffff1660e01b81526004016102189392919061199c565b600060405180830381600087803b15801561023257600080fd5b505af1158015610246573d6000803e3d6000fd5b5050505050505050505050505050565b6102b06040518060400160405280601d81526020017f546f6b656e20616d6f756e742066726f6d20466c6173686c6f616e3a20000000815250846000815181106102a3576102a2611749565b5b60200260200101516103f3565b6102d4836000815181106102c7576102c6611749565b5b602002602001015161048f565b60005b84518110156103ec5760006103298483815181106102f8576102f7611749565b5b602002602001015186848151811061031357610312611749565b5b602002602001015161079a90919063ffffffff16565b905085828151811061033e5761033d611749565b5b602002602001015173ffffffffffffffffffffffffffffffffffffffff1663a9059cbb73ba12222222228d8ba445958a75a0704d566bf2c8836040518363ffffffff1660e01b8152600401610394929190611a12565b6020604051808303816000875af11580156103b3573d6000803e3d6000fd5b505050506040513d601f19601f820116820180604052508101906103d79190611a73565b505080806103e490611acf565b9150506102d7565b5050505050565b61048b8282604051602401610409929190611b96565b6040516020818303038152906040527fb60e72cc000000000000000000000000000000000000000000000000000000007bffffffffffffffffffffffffffffffffffffffffffffffffffffffff19166020820180517bffffffffffffffffffffffffffffffffffffffffffffffffffffffff83818316178352505050506107b0565b5050565b6000806000815481106104a5576104a4611749565b5b9060005260206000200160009054906101000a900473ffffffffffffffffffffffffffffffffffffffff16905060008173ffffffffffffffffffffffffffffffffffffffff166370a08231306040518263ffffffff1660e01b815260040161050d9190611bc6565b602060405180830381865afa15801561052a573d6000803e3d6000fd5b505050506040513d601f19601f8201168201806040525081019061054e9190611bf6565b905061058f6040518060400160405280601f81526020017f436f6e74726163742062616c616e6365206f662066726f6d546f6b656e3a2000815250826103f3565b828110156105d2576040517f08c379a00000000000000000000000000000000000000000000000000000000081526004016105c990611c95565b60405180910390fd5b60008060005b6001805490508110156107925773e592427a0aece92de3edee1f18e0157c0586156473ffffffffffffffffffffffffffffffffffffffff166001828154811061062457610623611749565b5b9060005260206000200160009054906101000a900473ffffffffffffffffffffffffffffffffffffffff1673ffffffffffffffffffffffffffffffffffffffff16036106735760019250610678565b600092505b600081036106885785915061068e565b60025491505b61077383600183815481106106a6576106a5611749565b5b9060005260206000200160009054906101000a900473ffffffffffffffffffffffffffffffffffffffff16600084815481106106e5576106e4611749565b5b9060005260206000200160009054906101000a900473ffffffffffffffffffffffffffffffffffffffff16600060018661071f9190611cb5565b815481106107305761072f611749565b5b9060005260206000200160009054906101000a900473ffffffffffffffffffffffffffffffffffffffff1686600460009054906101000a900462ffffff166107ca565b61077f81600254610e85565b808061078a90611acf565b9150506105d8565b505050505050565b600081836107a89190611cb5565b905092915050565b6107c7816107bf610f21610f42565b63ffffffff16565b50565b600084905060008173ffffffffffffffffffffffffffffffffffffffff166370a08231306040518263ffffffff1660e01b815260040161080a9190611bc6565b602060405180830381865afa158015610827573d6000803e3d6000fd5b505050506040513d601f19601f8201168201806040525081019061084b9190611bf6565b905083811015610890576040517f08c379a000000000000000000000000000000000000000000000000000000000815260040161088790611d5b565b60405180910390fd5b87156109ce5760008790506108a6878987610f4d565b60006040518061010001604052808973ffffffffffffffffffffffffffffffffffffffff1681526020018873ffffffffffffffffffffffffffffffffffffffff1681526020018662ffffff1681526020013073ffffffffffffffffffffffffffffffffffffffff16815260200142815260200187815260200160008152602001600073ffffffffffffffffffffffffffffffffffffffff1681525090508173ffffffffffffffffffffffffffffffffffffffff1663414bf389826040518263ffffffff1660e01b815260040161097c9190611e4a565b6020604051808303816000875af115801561099b573d6000803e3d6000fd5b505050506040513d601f19601f820116820180604052508101906109bf9190611bf6565b60028190555050505050610e7d565b600087905060008790508073ffffffffffffffffffffffffffffffffffffffff1663095ea7b38a886040518363ffffffff1660e01b8152600401610a13929190611a12565b6020604051808303816000875af1158015610a32573d6000803e3d6000fd5b505050506040513d601f19601f82011682018060405250810190610a569190611a73565b610a95576040517f08c379a0000000000000000000000000000000000000000000000000000000008152600401610a8c90611eb2565b60405180910390fd5b6000600267ffffffffffffffff811115610ab257610ab161137e565b5b604051908082528060200260200182016040528015610ae05781602001602082028036833780820191505090505b5090508881600081518110610af857610af7611749565b5b602002602001019073ffffffffffffffffffffffffffffffffffffffff16908173ffffffffffffffffffffffffffffffffffffffff16815250508781600181518110610b4757610b46611749565b5b602002602001019073ffffffffffffffffffffffffffffffffffffffff16908173ffffffffffffffffffffffffffffffffffffffff16815250506002815114610bc5576040517f08c379a0000000000000000000000000000000000000000000000000000000008152600401610bbc90611f1e565b60405180910390fd5b8873ffffffffffffffffffffffffffffffffffffffff1681600081518110610bf057610bef611749565b5b602002602001015173ffffffffffffffffffffffffffffffffffffffff16148015610c6157508773ffffffffffffffffffffffffffffffffffffffff1681600181518110610c4157610c40611749565b5b602002602001015173ffffffffffffffffffffffffffffffffffffffff16145b610ca0576040517f08c379a0000000000000000000000000000000000000000000000000000000008152600401610c9790611f8a565b60405180910390fd5b60005b8151811015610d4857600073ffffffffffffffffffffffffffffffffffffffff16828281518110610cd757610cd6611749565b5b602002602001015173ffffffffffffffffffffffffffffffffffffffff1603610d35576040517f08c379a0000000000000000000000000000000000000000000000000000000008152600401610d2c90611ff6565b60405180910390fd5b8080610d4090611acf565b915050610ca3565b5060008373ffffffffffffffffffffffffffffffffffffffff166338ed17398960008530426040518663ffffffff1660e01b8152600401610d8d9594939291906120ef565b6000604051808303816000875af1158015610dac573d6000803e3d6000fd5b505050506040513d6000823e3d601f19601f82011682018060405250810190610dd591906121e0565b90506000808260018451610de99190612229565b81518110610dfa57610df9611749565b5b60200260200101519050818111610e46576040517f08c379a0000000000000000000000000000000000000000000000000000000008152600401610e3d906122cf565b60405180910390fd5b8260018451610e559190612229565b81518110610e6657610e65611749565b5b602002602001015160028190555050505050505050505b505050505050565b610f1d8282604051602401610e9b9291906122ef565b6040516020818303038152906040527ff666715a000000000000000000000000000000000000000000000000000000007bffffffffffffffffffffffffffffffffffffffffffffffffffffffff19166020820180517bffffffffffffffffffffffffffffffffffffffffffffffffffffffff83818316178352505050506107b0565b5050565b60006a636f6e736f6c652e6c6f679050600080835160208501845afa505050565b611142819050919050565b6000808473ffffffffffffffffffffffffffffffffffffffff1663095ea7b360e01b8585604051602401610f82929190611a12565b604051602081830303815290604052907bffffffffffffffffffffffffffffffffffffffffffffffffffffffff19166020820180517bffffffffffffffffffffffffffffffffffffffffffffffffffffffff8381831617835250505050604051610fec919061235f565b6000604051808303816000865af19150503d8060008114611029576040519150601f19603f3d011682016040523d82523d6000602084013e61102e565b606091505b509150915081801561105c575060008151148061105b57508080602001905181019061105a9190611a73565b5b5b61109b576040517f08c379a0000000000000000000000000000000000000000000000000000000008152600401611092906123c2565b60405180910390fd5b5050505050565b828054828255906000526020600020908101928215611131579160200282015b8281111561113057823573ffffffffffffffffffffffffffffffffffffffff168260006101000a81548173ffffffffffffffffffffffffffffffffffffffff021916908373ffffffffffffffffffffffffffffffffffffffff160217905550916020019190600101906110c2565b5b50905061113e919061114c565b5090565b61114a6123e2565b565b5b8082111561116557600081600090555060010161114d565b5090565b6000604051905090565b600080fd5b600080fd5b600073ffffffffffffffffffffffffffffffffffffffff82169050919050565b60006111a88261117d565b9050919050565b6111b88161119d565b81146111c357600080fd5b50565b6000813590506111d5816111af565b92915050565b6000819050919050565b6111ee816111db565b81146111f957600080fd5b50565b60008135905061120b816111e5565b92915050565b600080fd5b600080fd5b600080fd5b60008083601f84011261123657611235611211565b5b8235905067ffffffffffffffff81111561125357611252611216565b5b60208301915083602082028301111561126f5761126e61121b565b5b9250929050565b600062ffffff82169050919050565b61128e81611276565b811461129957600080fd5b50565b6000813590506112ab81611285565b92915050565b600080600080600080600060a0888a0312156112d0576112cf611173565b5b60006112de8a828b016111c6565b97505060206112ef8a828b016111fc565b965050604088013567ffffffffffffffff8111156113105761130f611178565b5b61131c8a828b01611220565b9550955050606088013567ffffffffffffffff81111561133f5761133e611178565b5b61134b8a828b01611220565b9350935050608061135e8a828b0161129c565b91505092959891949750929550565b6000601f19601f8301169050919050565b7f4e487b7100000000000000000000000000000000000000000000000000000000600052604160045260246000fd5b6113b68261136d565b810181811067ffffffffffffffff821117156113d5576113d461137e565b5b80604052505050565b60006113e8611169565b90506113f482826113ad565b919050565b600067ffffffffffffffff8211156114145761141361137e565b5b602082029050602081019050919050565b60006114308261119d565b9050919050565b61144081611425565b811461144b57600080fd5b50565b60008135905061145d81611437565b92915050565b6000611476611471846113f9565b6113de565b905080838252602082019050602084028301858111156114995761149861121b565b5b835b818110156114c257806114ae888261144e565b84526020840193505060208101905061149b565b5050509392505050565b600082601f8301126114e1576114e0611211565b5b81356114f1848260208601611463565b91505092915050565b600067ffffffffffffffff8211156115155761151461137e565b5b602082029050602081019050919050565b6000611539611534846114fa565b6113de565b9050808382526020820190506020840283018581111561155c5761155b61121b565b5b835b81811015611585578061157188826111fc565b84526020840193505060208101905061155e565b5050509392505050565b600082601f8301126115a4576115a3611211565b5b81356115b4848260208601611526565b91505092915050565b600080fd5b600067ffffffffffffffff8211156115dd576115dc61137e565b5b6115e68261136d565b9050602081019050919050565b82818337600083830152505050565b6000611615611610846115c2565b6113de565b905082815260208101848484011115611631576116306115bd565b5b61163c8482856115f3565b509392505050565b600082601f83011261165957611658611211565b5b8135611669848260208601611602565b91505092915050565b6000806000806080858703121561168c5761168b611173565b5b600085013567ffffffffffffffff8111156116aa576116a9611178565b5b6116b6878288016114cc565b945050602085013567ffffffffffffffff8111156116d7576116d6611178565b5b6116e38782880161158f565b935050604085013567ffffffffffffffff81111561170457611703611178565b5b6117108782880161158f565b925050606085013567ffffffffffffffff81111561173157611730611178565b5b61173d87828801611644565b91505092959194509250565b7f4e487b7100000000000000000000000000000000000000000000000000000000600052603260045260246000fd5b6000819050919050565b600061179d6117986117938461117d565b611778565b61117d565b9050919050565b60006117af82611782565b9050919050565b60006117c1826117a4565b9050919050565b6117d1816117b6565b82525050565b600081519050919050565b600082825260208201905092915050565b6000819050602082019050919050565b600061180e826117a4565b9050919050565b61181e81611803565b82525050565b60006118308383611815565b60208301905092915050565b6000602082019050919050565b6000611854826117d7565b61185e81856117e2565b9350611869836117f3565b8060005b8381101561189a5781516118818882611824565b975061188c8361183c565b92505060018101905061186d565b5085935050505092915050565b600081519050919050565b600082825260208201905092915050565b6000819050602082019050919050565b6118dc816111db565b82525050565b60006118ee83836118d3565b60208301905092915050565b6000602082019050919050565b6000611912826118a7565b61191c81856118b2565b9350611927836118c3565b8060005b8381101561195857815161193f88826118e2565b975061194a836118fa565b92505060018101905061192b565b5085935050505092915050565b600082825260208201905092915050565b50565b6000611986600083611965565b915061199182611976565b600082019050919050565b60006080820190506119b160008301866117c8565b81810360208301526119c38185611849565b905081810360408301526119d78184611907565b905081810360608301526119ea81611979565b9050949350505050565b6119fd8161119d565b82525050565b611a0c816111db565b82525050565b6000604082019050611a2760008301856119f4565b611a346020830184611a03565b9392505050565b60008115159050919050565b611a5081611a3b565b8114611a5b57600080fd5b50565b600081519050611a6d81611a47565b92915050565b600060208284031215611a8957611a88611173565b5b6000611a9784828501611a5e565b91505092915050565b7f4e487b7100000000000000000000000000000000000000000000000000000000600052601160045260246000fd5b6000611ada826111db565b91507fffffffffffffffffffffffffffffffffffffffffffffffffffffffffffffffff8203611b0c57611b0b611aa0565b5b600182019050919050565b600081519050919050565b600082825260208201905092915050565b60005b83811015611b51578082015181840152602081019050611b36565b60008484015250505050565b6000611b6882611b17565b611b728185611b22565b9350611b82818560208601611b33565b611b8b8161136d565b840191505092915050565b60006040820190508181036000830152611bb08185611b5d565b9050611bbf6020830184611a03565b9392505050565b6000602082019050611bdb60008301846119f4565b92915050565b600081519050611bf0816111e5565b92915050565b600060208284031215611c0c57611c0b611173565b5b6000611c1a84828501611be1565b91505092915050565b7f496e73756666696369656e7420746f6b656e7320696e20636f6e74726163742060008201527f62616c616e636500000000000000000000000000000000000000000000000000602082015250565b6000611c7f602783611b22565b9150611c8a82611c23565b604082019050919050565b60006020820190508181036000830152611cae81611c72565b9050919050565b6000611cc0826111db565b9150611ccb836111db565b9250828201905080821115611ce357611ce2611aa0565b5b92915050565b7f496e73756666696369656e7420746f6b656e2062616c616e636520666f72207360008201527f7761700000000000000000000000000000000000000000000000000000000000602082015250565b6000611d45602383611b22565b9150611d5082611ce9565b604082019050919050565b60006020820190508181036000830152611d7481611d38565b9050919050565b611d848161119d565b82525050565b611d9381611276565b82525050565b611da28161117d565b82525050565b61010082016000820151611dbf6000850182611d7b565b506020820151611dd26020850182611d7b565b506040820151611de56040850182611d8a565b506060820151611df86060850182611d7b565b506080820151611e0b60808501826118d3565b5060a0820151611e1e60a08501826118d3565b5060c0820151611e3160c08501826118d3565b5060e0820151611e4460e0850182611d99565b50505050565b600061010082019050611e606000830184611da8565b92915050565b7f763220746f6b656e207472616e73666572206e6f7420617070726f7665642e00600082015250565b6000611e9c601f83611b22565b9150611ea782611e66565b602082019050919050565b60006020820190508181036000830152611ecb81611e8f565b9050919050565b7f496e76616c696420737761702070617468206c656e6774680000000000000000600082015250565b6000611f08601883611b22565b9150611f1382611ed2565b602082019050919050565b60006020820190508181036000830152611f3781611efb565b9050919050565b7f496e76616c696420737761702070617468000000000000000000000000000000600082015250565b6000611f74601183611b22565b9150611f7f82611f3e565b602082019050919050565b60006020820190508181036000830152611fa381611f67565b9050919050565b7f5a65726f206164647265737320696e2073776170207061746800000000000000600082015250565b6000611fe0601983611b22565b9150611feb82611faa565b602082019050919050565b6000602082019050818103600083015261200f81611fd3565b9050919050565b6000819050919050565b600061203b61203661203184612016565b611778565b6111db565b9050919050565b61204b81612020565b82525050565b600081519050919050565b6000819050602082019050919050565b60006120788383611d7b565b60208301905092915050565b6000602082019050919050565b600061209c82612051565b6120a681856117e2565b93506120b18361205c565b8060005b838110156120e25781516120c9888261206c565b97506120d483612084565b9250506001810190506120b5565b5085935050505092915050565b600060a0820190506121046000830188611a03565b6121116020830187612042565b81810360408301526121238186612091565b905061213260608301856119f4565b61213f6080830184611a03565b9695505050505050565b600061215c612157846114fa565b6113de565b9050808382526020820190506020840283018581111561217f5761217e61121b565b5b835b818110156121a857806121948882611be1565b845260208401935050602081019050612181565b5050509392505050565b600082601f8301126121c7576121c6611211565b5b81516121d7848260208601612149565b91505092915050565b6000602082840312156121f6576121f5611173565b5b600082015167ffffffffffffffff81111561221457612213611178565b5b612220848285016121b2565b91505092915050565b6000612234826111db565b915061223f836111db565b925082820390508181111561225757612256611aa0565b5b92915050565b7f526563656976656420616d6f756e74206c657373207468616e2065787065637460008201527f6564000000000000000000000000000000000000000000000000000000000000602082015250565b60006122b9602283611b22565b91506122c48261225d565b604082019050919050565b600060208201905081810360008301526122e8816122ac565b9050919050565b60006040820190506123046000830185611a03565b6123116020830184611a03565b9392505050565b600081519050919050565b600081905092915050565b600061233982612318565b6123438185612323565b9350612353818560208601611b33565b80840191505092915050565b600061236b828461232e565b915081905092915050565b7f5341000000000000000000000000000000000000000000000000000000000000600082015250565b60006123ac600283611b22565b91506123b782612376565b602082019050919050565b600060208201905081810360008301526123db8161239f565b9050919050565b7f4e487b7100000000000000000000000000000000000000000000000000000000600052605160045260246000fdfea264697066735822122035aa0d1cd689c8559874990d7f20868eb8f138955785834b7b2d5dfdd2adbfd664736f6c63430008130033",
  "linkReferences": {},
  "deployedLinkReferences": {}
}